:020000040800F2
:10000000FF4F00209D010008E5010008E501000800
:10001000E5010008E5010008E50100080000000016
:10002000000000000000000000000000E5010008E2
:10003000E501000800000000E5010008E5010008F6
:10004000E5010008E5010008E5010008E5010008F8
:10005000E5010008E5010008E5010008E5010008E8
:10006000E5010008E5010008E5010008E5010008D8
:10007000E5010008E5010008E5010008E5010008C8
:10008000E5010008E5010008E5010008E5010008B8
:10009000E5010008E5010008E5010008E5010008A8
:1000A000E5010008E5010008E5010008E501000898
:1000B000E5010008E5010008E5010008E501000888
:1000C000E5010008E5010008E5010008E501000878
:1000D000E5010008E5010008E5010008E501000868
:1000E000E5010008E5010008E50100080000000046
:1000F0000000000000000000000000000000000000
:0C01000000000000000000005FF808F1A3
:10010C000348044B834202D0034B03B1184770479A
:10011C000000002000000020000000000548064BF5
:10012C001B1AD90F01EBA301491002D0034B03B1E9
:10013C00184770470000002000000020000000005D
:10014C0010B5064C237843B9FFF7DAFF044B13B113
:10015C000448AFF300800123237010BD0000002081
:10016C00000000003002000808B5044B1BB1044924
:10017C000448AFF30080BDE80840CFE70000000062
:10018C00040000203002000801207047704700BFB7
:10019C000C480D490D4A002302E0D458C4500433D6
:1001AC00C4188C42F9D30A4A0A4C002301E01360AC
:1001BC000432A242FBD3FFF7E9FF00F00FF8FFF780
:1001CC00E3FF7047000000200000002050020008F0
:1001DC00000000201C000020FEE7000070B5002687
:1001EC000C4D0D4C641BA410A64209D100F01AF85A
:1001FC0000260A4D0A4C641BA410A64205D170BD02
:10020C0055F8043B98470136EEE755F8043B984700
:10021C000136F2E7480200084802000848020008CC
:10022C004C020008F8B500BFF8BC08BC9E467047ED
:0C023C00F8B500BFF8BC08BC9E46704737
:040248007501000834
:04024C004D01000858
:040000050800019D51
:00000001FF
